{
  "transactions": [
    {
      "hash": "0xee47734a173e21db82aa222744293f70bd7a243781ddb18606239587143b9d45",
      "transactionType": "CREATE",
      "contractName": "PasswordStore",
      "contractAddress": "0x5fbdb2315678afecb367f032d93f642f64180aa3",
      "function": null,
      "arguments": null,
      "transaction": {
        "from": "0xf39fd6e51aad88f6f4ce6ab8827279cfffb92266",
        "gas": "0x5db72",
        "value": "0x0",
        "input": "0x608060405234801561001057600080fd5b50600080546001600160a01b031916331790556103f9806100326000396000f3fe608060405234801561001057600080fd5b50600436106100365760003560e01c8063290bb4531461003b578063cc8e239414610050575b600080fd5b61004e61004936600461017b565b61006e565b005b6100586100a7565b604051610065919061022c565b60405180910390f35b600161007a8282610303565b506040517fe0c0c4369656c0c076d23bc27b02824cebc7bef10cb375fd34334edd4974c85490600090a150565b6000546060906001600160a01b031633146100d557604051630f44287360e41b815260040160405180910390fd5b600180546100e29061027a565b80601f016020809104026020016040519081016040528092919081815260200182805461010e9061027a565b801561015b5780601f106101305761010080835404028352916020019161015b565b820191906000526020600020905b81548152906001019060200180831161013e57829003601f168201915b5050505050905090565b634e487b7160e01b600052604160045260246000fd5b60006020828403121561018d57600080fd5b813567ffffffffffffffff808211156101a557600080fd5b818401915084601f8301126101b957600080fd5b8135818111156101cb576101cb610165565b604051601f8201601f19908116603f011681019083821181831017156101f3576101f3610165565b8160405282815287602084870101111561020c57600080fd5b826020860160208301376000928101602001929092525095945050505050565b600060208083528351808285015260005b818110156102595785810183015185820160400152820161023d565b506000604082860101526040601f19601f8301168501019250505092915050565b600181811c9082168061028e57607f821691505b6020821081036102ae57634e487b7160e01b600052602260045260246000fd5b50919050565b601f8211156102fe57600081815260208120601f850160051c810160208610156102db5750805b601f850160051c820191505b818110156102fa578281556001016102e7565b5050505b505050565b815167ffffffffffffffff81111561031d5761031d610165565b6103318161032b845461027a565b846102b4565b602080601f831160018114610366576000841561034e5750858301515b600019600386901b1c1916600185901b1785556102fa565b600085815260208120601f198616915b8281101561039557888601518255948401946001909101908401610376565b50858210156103b35787850151600019600388901b60f8161c191681555b5050505050600190811b0190555056fea26469706673582212208af0dbc715c5b8dce08981bc04e7f598406bb629742f3668e1ff5ac5358bf43e64736f6c63430008120033",
        "nonce": "0x0",
        "chainId": "0x7a69"
      },
      "additionalContracts": [],
      "isFixedGasLimit": false
    },
    {
      "hash": "0xc376757e1c78caf0e7c09709ac6231f1447098d3d784f06820a392c5a32d9fc8",
      "transactionType": "CALL",
      "contractName": "PasswordStore",
      "contractAddress": "0x5fbdb2315678afecb367f032d93f642f64180aa3",
      "function": "setPassword(string)",
      "arguments": [
        "\"myPassword\""
      ],
      "transaction": {
        "from": "0xf39fd6e51aad88f6f4ce6ab8827279cfffb92266",
        "to": "0x5fbdb2315678afecb367f032d93f642f64180aa3",
        "gas": "0x1033d",
        "value": "0x0",
        "input": "0x290bb4530000000000000000000000000000000000000000000000000000000000000020000000000000000000000000000000000000000000000000000000000000000a6d7950617373776f726400000000000000000000000000000000000000000000",
        "nonce": "0x1",
        "chainId": "0x7a69"
      },
      "additionalContracts": [],
      "isFixedGasLimit": false
    }
  ],
  "receipts": [
    {
      "status": "0x1",
      "cumulativeGasUsed": "0x481b0",
      "logs": [],
      "logsBloom": "0x00000000000000000000000000000000000000000000000000000000000000000000000000000000000000000000000000000000000000000000000000000000000000000000000000000000000000000000000000000000000000000000000000000000000000000000000000000000000000000000000000000000000000000000000000000000000000000000000000000000000000000000000000000000000000000000000000000000000000000000000000000000000000000000000000000000000000000000000000000000000000000000000000000000000000000000000000000000000000000000000000000000000000000000000000000000",
      "type": "0x2",
      "transactionHash": "0xee47734a173e21db82aa222744293f70bd7a243781ddb18606239587143b9d45",
      "transactionIndex": "0x0",
      "blockHash": "0xbc292c2888610ba94c489f6de402ea84120d251ca1521941f438727ba64da041",
      "blockNumber": "0x1",
      "gasUsed": "0x481b0",
      "effectiveGasPrice": "0x3b9aca01",
      "blobGasPrice": "0x1",
      "from": "0xf39fd6e51aad88f6f4ce6ab8827279cfffb92266",
      "to": null,
      "contractAddress": "0x5fbdb2315678afecb367f032d93f642f64180aa3",
      "root": "0x99738aefc9b356c1459d8630eba69d0f06460c52ac4d8800bff565d28be824cf"
    },
    {
      "status": "0x1",
      "cumulativeGasUsed": "0xb142",
      "logs": [
        {
          "address": "0x5fbdb2315678afecb367f032d93f642f64180aa3",
          "topics": [
            "0xe0c0c4369656c0c076d23bc27b02824cebc7bef10cb375fd34334edd4974c854"
          ],
          "data": "0x",
          "blockHash": "0x854ba966b73b725f3cc3b6ce852ff0d7d6bc7792fcc9d9406e277aafe76d9f5b",
          "blockNumber": "0x2",
          "blockTimestamp": "0x66fea7c5",
          "transactionHash": "0xc376757e1c78caf0e7c09709ac6231f1447098d3d784f06820a392c5a32d9fc8",
          "transactionIndex": "0x0",
          "logIndex": "0x0",
          "removed": false
        }
      ],
      "logsBloom": "0x00000000000000000000000000000000000000400000000000000000000000000000000000000000000000000000000000000000000000000000000000000000000000000000000000000000000000000000000000000000000000000000000000000040000000000000000000000000000000000000000000000000000020000000000000000000000000000000000000000000000000000000000200000000000000000000000000000000000000000000000000000000000000000000000000000040000000000000000000000000000000000000000000000000000000000000000020000000000000000000000000000000000000000000000000000000",
      "type": "0x2",
      "transactionHash": "0xc376757e1c78caf0e7c09709ac6231f1447098d3d784f06820a392c5a32d9fc8",
      "transactionIndex": "0x0",
      "blockHash": "0x854ba966b73b725f3cc3b6ce852ff0d7d6bc7792fcc9d9406e277aafe76d9f5b",
      "blockNumber": "0x2",
      "gasUsed": "0xb142",
      "effectiveGasPrice": "0x344cfed1",
      "blobGasPrice": "0x1",
      "from": "0xf39fd6e51aad88f6f4ce6ab8827279cfffb92266",
      "to": "0x5fbdb2315678afecb367f032d93f642f64180aa3",
      "contractAddress": null,
      "root": "0x41880fe936490f9667a9cf27d931d8dd64989b64b1a7c334201075417c806b1e"
    }
  ],
  "libraries": [],
  "pending": [],
  "returns": {
    "0": {
      "internal_type": "contract PasswordStore",
      "value": "0x5FbDB2315678afecb367f032d93F642f64180aa3"
    }
  },
  "timestamp": 1727965124,
  "chain": 31337,
  "commit": "7d55682"
}